:100000000C945C000C9479000C9479000C947900A9
:100010000C9479000C9479000C9479000C9479007C
:100020000C9479000C9479000C9479000C9485015F
:100030000C9479000C9479000C9479000C9479005C
:100040000C94FF010C9479000C9479000C947900C5
:100050000C9479000C9479000C9479000C9479003C
:100060000C9479000C947900000000002400270013
:100070002A0000000000250028002B0004040404CE
:100080000404040402020202020203030303030342
:10009000010204081020408001020408102001021F
:1000A00004081020000000080002010000030407FB
:1000B000000000000000000011241FBECFEFD8E0B8
:1000C000DEBFCDBF11E0A0E0B1E0E0E2F6E002C0AB
:1000D00005900D92A230B107D9F721E0A2E0B1E07E
:1000E00001C01D92A13BB207E1F70E9447020C94A8
:1000F0000B030C940000CF93DF9300D000D0CDB75A
:10010000DEB73FB7F8948091080190910901A09162
:100110000A01B0910B0126B5A89B05C02F3F19F02D
:100120000196A11DB11D3FBFBA2FA92F982F882777
:10013000820F911DA11DB11D9C01AD0162E0220F36
:10014000331F441F551F6A95D1F7CA01B9010F909B
:100150000F900F900F90DF91CF9108958F929F9203
:10016000AF92BF92CF92DF92EF92FF92CF93DF9345
:1001700000D000D0CDB7DEB74B015C010E947B0000
:100180006B017C010E947B00DC01CB018C199D0975
:10019000AE09BF09883E9340A105B10598F321E05F
:1001A000821A9108A108B10888EEC80E83E0D81E13
:1001B000E11CF11C81149104A104B10419F70F9002
:1001C0000F900F900F90DF91CF91FF90EF90DF9005
:1001D000CF90BF90AF909F908F90089590E0FC01DA
:1001E000EC55FF4F2491FC01E057FF4F3491FC0187
:1001F000E458FF4FE491EE23D9F0222349F0243054
:1002000031F1B8F4223059F12330D9F0213019F10D
:10021000F0E0EE0FFF1FEE58FF4FA591B4919FB78E
:10022000F8948C91611124C0309538233C939FBF82
:1002300008952730B9F0283059F78091B0008F7DAC
:1002400014C0809180008F7780938000E1CF8091EF
:1002500080008F7DF9CF84B58F7784BDD9CF84B5E9
:100260008F7DFBCF8091B0008F778093B000D0CF8F
:10027000832B8C93DCCF61E08DE00E94EE0068EE72
:1002800073E080E090E00E94AE0060E08DE00C94AE
:10029000EE0061E08CE00E94EE0064EF71E080E02F
:1002A00090E00E94AE0060E08CE00C94EE0061E013
:1002B0008BE00E94EE0064E670E080E090E00E9437
:1002C000AE0060E08BE00C94EE0090E0FC01E057A3
:1002D000FF4F249184589F4FFC0184918823A1F003
:1002E00090E0880F991FFC01E859FF4FA591B49148
:1002F000FC01EE58FF4F859194918FB7F8949C9133
:10030000E22FE92BEC938FBF08951F920F920FB647
:100310000F921124EF92FF920F931F932F933F930D
:100320004F935F936F937F938F939F93AF93BF93FD
:10033000CF93DF93EF93FF93C1E1D1E0FE0121E082
:1003400030E084819581892BA1F086819781892B6A
:1003500081F482819381892B39F4378326838081CC
:100360009181019693838283828193810197938304
:100370008283389681E0E13BF80719F7E0900001AD
:10038000F090010110E000E00E151F05BCF0FF9198
:10039000EF91DF91CF91BF91AF919F918F917F911D
:1003A0006F915F914F913F912F911F910F91FF900E
:1003B000EF900F900FBE0F901F9018958C819D812C
:1003C000892BC9F08E819F81892BA9F01F821E8203
:1003D00010930101009300017894EC81FD8109954F
:1003E000F894F0920101E092000188819981892BB3
:1003F00011F41D821C820F5F1F4F2896C5CF1F92DC
:100400001FB61F9211242F933F938F939F93AF9307
:10041000BF9380910D0190910E01A0910F01B091B9
:10042000100130910C0123E0230F2D3750F5019678
:10043000A11DB11D20930C0180930D0190930E011D
:10044000A0930F01B09310018091080190910901D0
:10045000A0910A01B0910B010196A11DB11D8093DD
:10046000080190930901A0930A01B0930B01BF9179
:10047000AF919F918F913F912F911F901FBE1F9021
:10048000189526E8230F0296A11DB11DD3CF7894AD
:1004900084B5826084BD84B5816084BD85B5826089
:1004A00085BD85B5816085BD80916E00816080933A
:1004B0006E001092810080918100826080938100A3
:1004C00080918100816080938100809180008160B3
:1004D000809380008091B10084608093B10080910E
:1004E000B00081608093B00080917A008460809336
:1004F0007A0080917A00826080937A0080917A00FD
:10050000816080937A0080917A00806880937A007D
:100510001092C1008DE00E9465018CE00E9465018F
:100520008BE00E9465018091150190911601892B45
:10053000B1F48AE090E0909312018093110185E07C
:1005400090E090931401809313018BE391E09093DA
:1005500016018093150110921801109217018091D5
:100560001D0190911E01892BB1F484E090E09093DD
:100570001A018093190110921C0110921B0189E449
:1005800091E090931E0180931D0181E090E0909393
:10059000200180931F018091250190912601892BD4
:1005A000A1F481E090E090932201809321011092C8
:1005B00024011092230127E531E030932601209396
:1005C00025019093280180932701F89410928000D0
:1005D00010928100109285001092840082E19AE7C7
:1005E0009093890080938800809181008860809337
:1005F00081008091810084608093810080916F00F0
:10060000826080936F007894C0E0D0E02097F1F38F
:100610000E940000FBCFF8940C940E03F894FFCFD7
:020620001500C3
:00000001FF
